:020000040000FA
:10000000000083160313FF30870083120313A92017
:1000100009280B20092842204D20B800FF30C500D8
:100020002C204D20B600FF30C5002C203808F039B8
:10003000B300330EB30038080F39B4005D20EF3041
:10004000C5002C20410E4207C5002C203720430854
:10005000C5002C2037200B2883160313003087009F
:1000600083120313450887000A308F200800831687
:100070000313FF308700831203130708FF3A031DA1
:100080003D28080083160313FF30870083120313F3
:100090000708EF3A031D4828080083160313FF30B2
:1000A0008700831203130708FF3A03195328070830
:1000B000EF3A03195728070808003608B801B807AF
:1000C000B40B5F283808C300C20103140A30C3020E
:1000D000C20A03186728C307C2033608B801B80765
:1000E000B30B6F283808B900C10103140A30B902F4
:1000F000C10A03187728B907C1033908C2070314D6
:100100000A30C202C10A03188128C207C1030800CD
:100110000000F930F0000000F00B8B280800F1001F
:100120008820F10B902808000815882008118820E5
:100130000800F500F0398800F4188814942088200D
:10014000F50E7508F0398800F4188814942088207A
:10015000080064308F20F030F400303088009420A4
:1001600005308F2094208820942028309920083052
:1001700099200130992006309920803099200C3048
:0401800099200800BA
:02400E00313748
:00000001FF
