:020000040000FA
:100000000000831603138801831603130130860052
:100010008312031388011B220D2814201B22202188
:1000200030214021B5210E28F41080300B22F41429
:1000300057300B2265300B226C300B2263300B22C1
:100040006F300B226D300B2265300B2220300B22DB
:1000500074300B226F300B22F410C0300B22F414DA
:100060006D300B2275300B226C300B2274300B225A
:1000700069300B2270300B226C300B2269300B225E
:1000800063300B2261300B2274300B2269300B225B
:100090006F300B226E300B22FA300122FA3001222F
:1000A000FA300122FA300122F41008300B22F41445
:1000B00064300122F4100C300B22F414FA300122C7
:1000C000FA300122FA300122FA300122F41008300D
:1000D0000B22F41464300122F4100C300B22F414BF
:1000E000FA300122FA300122FA300122FA300122DC
:1000F000F41008300B22F41464300122F4100C3098
:100100000B220800B401B301B601B501C001C10161
:10011000C201C301B201F41080300B22F4144E303E
:100120000B2275300B226D300B2262300B226530B2
:100130000B2272300B2220300B2231300B22F410B4
:10014000C0300B22F41430300B220130B200080012
:10015000F41080300B22F4144E300B2275300B2239
:100160006D300B2262300B2265300B2272300B2275
:1001700020300B2232300B22F410C2300B22F41448
:1001800078300B2230300B220330B2000800B70168
:10019000320882070000D028DF28EE28FD28FA293F
:1001A000B30A33080A3A0319B301F410C0300B2222
:1001B000F414303033070B22061CDC282229B40A41
:1001C00034080A3A0319B401F410C1300B22F414B4
:1001D000303034070B22061CEB282229B50A3508DB
:1001E0000A3A0319B501F410C3300B22F41430306D
:1001F00035070B22061CFA283229B60A36080A3AB5
:100200000319B601F410C4300B22F4143030360751
:100210000B22061C09293229B20AB701F410C13099
:100220000B22F414303034070B220800B20AB70155
:10023000F410C4300B22F414303036070B220800BF
:10024000B7018220B70A061CC7283708C83A031925
:100250000C213208033A031908000A30012222292E
:10026000B701A820B70A061CC7283708C83A0319DF
:1002700016213208053A031908000A3001223229F2
:10028000EF30C5005921330E3407C50059216421D0
:100290003608C500592164218A216F217A21B800CE
:1002A000FF30C50059217A21C300FF30C500592114
:1002B00008008316031300308700831203134508D8
:1002C00087000A300122080083160313FF308700DD
:1002D000831203130708FF3A031D6A2908008316D7
:1002E0000313FF308700831203130708EF3A031D3F
:1002F0007529080083160313FF3087008312031348
:100300000708FF3A031980290708EF3A03198429DF
:10031000070808003508B801B807B40B8C2938085D
:10032000C200C10103140A30C202C10A0318942991
:10033000C207C1033508B801B807B30B9C293808B8
:10034000B900C00103140A30B902C00A0318A42975
:10035000B907C0033908C10703140A30C102C00A33
:100360000318AE29C107C00308003808F039B900E6
:10037000390EB90038080F39C4004408C207031405
:100380000A30C202C10A0318C129C207C1033908D1
:10039000C10703140A30C102C00A0318CB29C107E0
:1003A000C003F41080300B22F41452300B2265305D
:1003B0000B2273300B2275300B226C300B22743001
:1003C0000B223A300B2220300B22F410C5300B22C6
:1003D000F4143D300B22303040070B2230304107FF
:1003E0000B22303042070B22303043070B22061C11
:1003F0000800F729FA29F930F0000000F00BFD2978
:100400000800F100FB21F10B022A08000815FB216E
:100410000811FB210800F500F0398800F418881451
:100420000622FB21F50E7508F0398800F4188814AF
:100430000622FB21080064300122F030F400303045
:1004400088000622053001220622FB21062208121E
:10045000062228300B2208300B2201300B220630F6
:0C0460000B2280300B220C300B22080015
:02400E00313748
:00000001FF
